{
  "address": "0xCf7Ed3AccA5a467e9e704C703E8D87F634fB0Fc9",
  "abi": [
    {
      "inputs": [
        {
          "internalType": "address",
          "name": "_tokenAddress",
          "type": "address"
        },
        {
          "internalType": "address",
          "name": "_stakingAddress",
          "type": "address"
        }
      ],
      "stateMutability": "nonpayable",
      "type": "constructor"
    },
    {
      "anonymous": false,
      "inputs": [
        {
          "indexed": true,
          "internalType": "address",
          "name": "applicant",
          "type": "address"
        },
        {
          "indexed": true,
          "internalType": "uint256",
          "name": "jobId",
          "type": "uint256"
        },
        {
          "indexed": false,
          "internalType": "string",
          "name": "application",
          "type": "string"
        },
        {
          "indexed": false,
          "internalType": "uint256",
          "name": "salary",
          "type": "uint256"
        },
        {
          "indexed": false,
          "internalType": "string",
          "name": "location",
          "type": "string"
        },
        {
          "indexed": false,
          "internalType": "uint256",
          "name": "timestamp",
          "type": "uint256"
        }
      ],
      "name": "JobApplied",
      "type": "event"
    },
    {
      "anonymous": false,
      "inputs": [
        {
          "indexed": false,
          "internalType": "uint256",
          "name": "jobId",
          "type": "uint256"
        },
        {
          "indexed": true,
          "internalType": "address",
          "name": "employer",
          "type": "address"
        },
        {
          "indexed": true,
          "internalType": "string",
          "name": "title",
          "type": "string"
        },
        {
          "indexed": false,
          "internalType": "string",
          "name": "location",
          "type": "string"
        },
        {
          "indexed": false,
          "internalType": "uint256",
          "name": "salaryFrom",
          "type": "uint256"
        },
        {
          "indexed": false,
          "internalType": "uint256",
          "name": "salaryTo",
          "type": "uint256"
        },
        {
          "indexed": false,
          "internalType": "string",
          "name": "description",
          "type": "string"
        },
        {
          "indexed": false,
          "internalType": "string",
          "name": "qualifications",
          "type": "string"
        },
        {
          "indexed": false,
          "internalType": "uint256",
          "name": "timestamp",
          "type": "uint256"
        }
      ],
      "name": "JobPosted",
      "type": "event"
    },
    {
      "inputs": [
        {
          "internalType": "uint256",
          "name": "_jobId",
          "type": "uint256"
        },
        {
          "internalType": "string",
          "name": "_application",
          "type": "string"
        },
        {
          "internalType": "uint256",
          "name": "_salary",
          "type": "uint256"
        },
        {
          "internalType": "string",
          "name": "_location",
          "type": "string"
        }
      ],
      "name": "applyForJob",
      "outputs": [],
      "stateMutability": "nonpayable",
      "type": "function"
    },
    {
      "inputs": [
        {
          "internalType": "address",
          "name": "_address",
          "type": "address"
        }
      ],
      "name": "getAllJobs",
      "outputs": [
        {
          "components": [
            {
              "internalType": "uint256",
              "name": "id",
              "type": "uint256"
            },
            {
              "internalType": "string",
              "name": "title",
              "type": "string"
            },
            {
              "internalType": "string",
              "name": "description",
              "type": "string"
            },
            {
              "internalType": "string",
              "name": "qualifications",
              "type": "string"
            },
            {
              "internalType": "string",
              "name": "location",
              "type": "string"
            },
            {
              "internalType": "uint256",
              "name": "salaryFrom",
              "type": "uint256"
            },
            {
              "internalType": "uint256",
              "name": "salaryTo",
              "type": "uint256"
            },
            {
              "internalType": "uint256",
              "name": "applicationCount",
              "type": "uint256"
            },
            {
              "internalType": "bool",
              "name": "applied",
              "type": "bool"
            },
            {
              "internalType": "uint256",
              "name": "timestamp",
              "type": "uint256"
            }
          ],
          "internalType": "struct JobBoard.JobList[]",
          "name": "",
          "type": "tuple[]"
        }
      ],
      "stateMutability": "view",
      "type": "function"
    },
    {
      "inputs": [
        {
          "internalType": "address",
          "name": "_address",
          "type": "address"
        }
      ],
      "name": "getApplicationCount",
      "outputs": [
        {
          "internalType": "uint256",
          "name": "",
          "type": "uint256"
        }
      ],
      "stateMutability": "view",
      "type": "function"
    },
    {
      "inputs": [
        {
          "internalType": "uint256",
          "name": "_jobId",
          "type": "uint256"
        }
      ],
      "name": "getApplications",
      "outputs": [
        {
          "components": [
            {
              "internalType": "string",
              "name": "application",
              "type": "string"
            },
            {
              "internalType": "uint256",
              "name": "salary",
              "type": "uint256"
            },
            {
              "internalType": "string",
              "name": "location",
              "type": "string"
            },
            {
              "internalType": "uint256",
              "name": "timestamp",
              "type": "uint256"
            }
          ],
          "internalType": "struct JobBoard.Application[]",
          "name": "",
          "type": "tuple[]"
        }
      ],
      "stateMutability": "view",
      "type": "function"
    },
    {
      "inputs": [],
      "name": "jobCount",
      "outputs": [
        {
          "internalType": "uint256",
          "name": "",
          "type": "uint256"
        }
      ],
      "stateMutability": "view",
      "type": "function"
    },
    {
      "inputs": [
        {
          "internalType": "uint256",
          "name": "",
          "type": "uint256"
        }
      ],
      "name": "jobs",
      "outputs": [
        {
          "internalType": "address",
          "name": "employer",
          "type": "address"
        },
        {
          "internalType": "string",
          "name": "title",
          "type": "string"
        },
        {
          "internalType": "string",
          "name": "description",
          "type": "string"
        },
        {
          "internalType": "string",
          "name": "qualifications",
          "type": "string"
        },
        {
          "internalType": "uint256",
          "name": "salaryFrom",
          "type": "uint256"
        },
        {
          "internalType": "uint256",
          "name": "salaryTo",
          "type": "uint256"
        },
        {
          "internalType": "string",
          "name": "location",
          "type": "string"
        },
        {
          "internalType": "uint256",
          "name": "timestamp",
          "type": "uint256"
        }
      ],
      "stateMutability": "view",
      "type": "function"
    },
    {
      "inputs": [],
      "name": "mainToken",
      "outputs": [
        {
          "internalType": "contract IERC20",
          "name": "",
          "type": "address"
        }
      ],
      "stateMutability": "view",
      "type": "function"
    },
    {
      "inputs": [],
      "name": "owner",
      "outputs": [
        {
          "internalType": "address",
          "name": "",
          "type": "address"
        }
      ],
      "stateMutability": "view",
      "type": "function"
    },
    {
      "inputs": [
        {
          "internalType": "string",
          "name": "_title",
          "type": "string"
        },
        {
          "internalType": "string",
          "name": "_description",
          "type": "string"
        },
        {
          "internalType": "string",
          "name": "_qualifications",
          "type": "string"
        },
        {
          "internalType": "string",
          "name": "_location",
          "type": "string"
        },
        {
          "internalType": "uint256",
          "name": "_salaryFrom",
          "type": "uint256"
        },
        {
          "internalType": "uint256",
          "name": "_salaryTo",
          "type": "uint256"
        }
      ],
      "name": "postJob",
      "outputs": [],
      "stateMutability": "nonpayable",
      "type": "function"
    },
    {
      "inputs": [
        {
          "internalType": "uint256",
          "name": "_tokenAmount",
          "type": "uint256"
        }
      ],
      "name": "setTokenAmountForApplying",
      "outputs": [],
      "stateMutability": "nonpayable",
      "type": "function"
    },
    {
      "inputs": [
        {
          "internalType": "uint256",
          "name": "_tokenAmount",
          "type": "uint256"
        }
      ],
      "name": "setTokenAmountForPosting",
      "outputs": [],
      "stateMutability": "nonpayable",
      "type": "function"
    },
    {
      "inputs": [],
      "name": "stakingContract",
      "outputs": [
        {
          "internalType": "contract IStaking",
          "name": "",
          "type": "address"
        }
      ],
      "stateMutability": "view",
      "type": "function"
    },
    {
      "inputs": [
        {
          "internalType": "address",
          "name": "_address",
          "type": "address"
        }
      ],
      "name": "trasnferOwner",
      "outputs": [],
      "stateMutability": "nonpayable",
      "type": "function"
    }
  ],
  "transactionHash": "0x7c96da3bd97c8f15b786f0fd02992a5376ad57a56d9b28446af7bd72b94306bc",
  "args": [
    "0x5FbDB2315678afecb367f032d93F642f64180aa3",
    "0x9fE46736679d2D9a65F0992F2272dE9f3c7fa6e0"
  ],
  "numDeployments": 1,
  "solcInputHash": "dc35d95a3bb234d44655631bc45edda8",
  "bytecode": "0x60c06040523480156200001157600080fd5b5060405162001bb838038062001bb8833981016040819052620000349162000093565b600280546001600160a01b031916331790556001600160a01b0391821660a05216608052670de0b6b3a7640000600155671bc16d674ec80000600055620000cb565b80516001600160a01b03811681146200008e57600080fd5b919050565b60008060408385031215620000a757600080fd5b620000b28362000076565b9150620000c26020840162000076565b90509250929050565b60805160a051611a9d6200011b600039600081816102250152818161025f0152610dd20152600081816101500152818161033f0152818161043601528181610eb60152610fb90152611a9d6000f3fe608060405234801561001057600080fd5b50600436106100ce5760003560e01c80634c5d8a0f1161008c5780638da5cb5b116100665780638da5cb5b146101da578063b2f2f17b146101ed578063bc8c937d14610200578063ee99205c1461022057600080fd5b80634c5d8a0f1461019d57806357520838146101b45780635a46204b146101c757600080fd5b8062d28db9146100d35780630dec01ea146100e8578063180aedf3146101115780632ef5ec18146101385780633fc15f151461014b5780634b5ced371461018a575b600080fd5b6100e66100e13660046113e1565b610247565b005b6100fb6100f6366004611458565b6105f0565b60405161010891906114d8565b60405180910390f35b61012461011f3660046115d8565b610ad4565b6040516101089897969594939291906115f1565b6100e6610146366004611458565b610d3f565b6101727f000000000000000000000000000000000000000000000000000000000000000081565b6040516001600160a01b039091168152602001610108565b6100e66101983660046115d8565b610d8b565b6101a660045481565b604051908152602001610108565b6100e66101c2366004611674565b610dba565b6101a66101d5366004611458565b61110f565b600254610172906001600160a01b031681565b6100e66101fb3660046115d8565b611162565b61021361020e3660046115d8565b611191565b6040516101089190611733565b6101727f000000000000000000000000000000000000000000000000000000000000000081565b6040516370a0823160e01b81523360048201526000907f00000000000000000000000000000000000000000000000000000000000000006001600160a01b0316906370a0823190602401602060405180830381865afa1580156102ae573d6000803e3d6000fd5b505050506040513d601f19601f820116820180604052508101906102d291906117c3565b9050600081116103245760405162461bcd60e51b81526020600482015260186024820152772cb7ba903430bb32903a379039ba30b5b2903334b939ba1760411b60448201526064015b60405180910390fd5b6001546040516370a0823160e01b81523360048201526000907f00000000000000000000000000000000000000000000000000000000000000006001600160a01b0316906370a0823190602401602060405180830381865afa15801561038e573d6000803e3d6000fd5b505050506040513d601f19601f820116820180604052508101906103b291906117c3565b90508181116104035760405162461bcd60e51b815260206004820152601b60248201527f496e73756666696369656e7420546f6b656e2042616c616e63652e0000000000604482015260640161031b565b6002546001546040516323b872dd60e01b81523360048201526001600160a01b03928316602482015260448101919091527f0000000000000000000000000000000000000000000000000000000000000000909116906323b872dd906064016020604051808303816000875af1158015610481573d6000803e3d6000fd5b505050506040513d601f19601f820116820180604052508101906104a591906117dc565b50600087815260036020908152604080832033845260080190915290205460ff16156105055760405162461bcd60e51b815260206004820152600f60248201526e105b1c9958591e48185c1c1b1a5959608a1b604482015260640161031b565b6000878152600360208181526040808420338552600881018352818520805460ff1916600190811790915593835281516080810183528b81528084018b9052918201899052426060830152600901805493840181558452922082516004909202019081906105739082611889565b5060208201516001820155604082015160028201906105929082611889565b5060608201518160030155505086336001600160a01b03167fd11767720323f8aa9c4b5e0b9f837d6cf8b906e6bd5dfe02559f21e9450b1d5d888888426040516105df9493929190611949565b60405180910390a350505050505050565b6060600060045467ffffffffffffffff81111561060f5761060f61133e565b60405190808252806020026020018201604052801561069857816020015b6106856040518061014001604052806000815260200160608152602001606081526020016060815260200160608152602001600081526020016000815260200160008152602001600015158152602001600081525090565b81526020019060019003908161062d5790505b50905060005b600454811015610acd57808282815181106106bb576106bb611986565b60209081029190910181015191909152600082815260039091526040902060010180546106e7906117fe565b80601f0160208091040260200160405190810160405280929190818152602001828054610713906117fe565b80156107605780601f1061073557610100808354040283529160200191610760565b820191906000526020600020905b81548152906001019060200180831161074357829003601f168201915b505050505082828151811061077757610777611986565b6020026020010151602001819052506003600082815260200190815260200160002060020180546107a7906117fe565b80601f01602080910402602001604051908101604052809291908181526020018280546107d3906117fe565b80156108205780601f106107f557610100808354040283529160200191610820565b820191906000526020600020905b81548152906001019060200180831161080357829003601f168201915b505050505082828151811061083757610837611986565b602002602001015160400181905250600360008281526020019081526020016000206003018054610867906117fe565b80601f0160208091040260200160405190810160405280929190818152602001828054610893906117fe565b80156108e05780601f106108b5576101008083540402835291602001916108e0565b820191906000526020600020905b8154815290600101906020018083116108c357829003601f168201915b50505050508282815181106108f7576108f7611986565b602002602001015160600181905250600360008281526020019081526020016000206006018054610927906117fe565b80601f0160208091040260200160405190810160405280929190818152602001828054610953906117fe565b80156109a05780601f10610975576101008083540402835291602001916109a0565b820191906000526020600020905b81548152906001019060200180831161098357829003601f168201915b50505050508282815181106109b7576109b7611986565b60200260200101516080018190525060036000828152602001908152602001600020600401548282815181106109ef576109ef611986565b602002602001015160a00181815250506003600082815260200190815260200160002060050154828281518110610a2857610a28611986565b60209081029190910181015160c0019190915260008281526003825260408082206001600160a01b03881683526008019092522054825160ff90911690839083908110610a7757610a77611986565b602090810291909101810151911515610100909201919091526000828152600390915260409020600901548251839083908110610ab657610ab6611986565b602090810291909101015160e0015260010161069e565b5092915050565b600360205260009081526040902080546001820180546001600160a01b039092169291610b00906117fe565b80601f0160208091040260200160405190810160405280929190818152602001828054610b2c906117fe565b8015610b795780601f10610b4e57610100808354040283529160200191610b79565b820191906000526020600020905b815481529060010190602001808311610b5c57829003601f168201915b505050505090806002018054610b8e906117fe565b80601f0160208091040260200160405190810160405280929190818152602001828054610bba906117fe565b8015610c075780601f10610bdc57610100808354040283529160200191610c07565b820191906000526020600020905b815481529060010190602001808311610bea57829003601f168201915b505050505090806003018054610c1c906117fe565b80601f0160208091040260200160405190810160405280929190818152602001828054610c48906117fe565b8015610c955780601f10610c6a57610100808354040283529160200191610c95565b820191906000526020600020905b815481529060010190602001808311610c7857829003601f168201915b505050505090806004015490806005015490806006018054610cb6906117fe565b80601f0160208091040260200160405190810160405280929190818152602001828054610ce2906117fe565b8015610d2f5780601f10610d0457610100808354040283529160200191610d2f565b820191906000526020600020905b815481529060010190602001808311610d1257829003601f168201915b5050505050908060070154905088565b6002546001600160a01b03163314610d695760405162461bcd60e51b815260040161031b9061199c565b600280546001600160a01b0319166001600160a01b0392909216919091179055565b6002546001600160a01b03163314610db55760405162461bcd60e51b815260040161031b9061199c565b600055565b6040516370a0823160e01b81523360048201526000907f00000000000000000000000000000000000000000000000000000000000000006001600160a01b0316906370a0823190602401602060405180830381865afa158015610e21573d6000803e3d6000fd5b505050506040513d601f19601f82011682018060405250810190610e4591906117c3565b905060008111610e925760405162461bcd60e51b81526020600482015260186024820152772cb7ba903430bb32903a379039ba30b5b2903334b939ba1760411b604482015260640161031b565b600080546040516370a0823160e01b81523360048201529091906001600160a01b037f000000000000000000000000000000000000000000000000000000000000000016906370a0823190602401602060405180830381865afa158015610efd573d6000803e3d6000fd5b505050506040513d601f19601f82011682018060405250810190610f2191906117c3565b9050818111610f725760405162461bcd60e51b815260206004820152601b60248201527f496e73756666696369656e7420546f6b656e2042616c616e63652e0000000000604482015260640161031b565b60048054600090815260036020526040808220600254925491516323b872dd60e01b815233948101949094526001600160a01b0392831660248501526044840191909152917f0000000000000000000000000000000000000000000000000000000000000000909116906323b872dd906064016020604051808303816000875af1158015611004573d6000803e3d6000fd5b505050506040513d601f19601f8201168201806040525081019061102891906117dc565b5080546001600160a01b03191633178155600181016110478b82611889565b50600281016110568a82611889565b50600381016110658982611889565b50600681016110748882611889565b506004810186905560058101859055426007820155604051611097908b906119c4565b6040518091039020336001600160a01b03167fe5c3805e99eea74dd1dfca0fc6d4af1b8ecaeb7f191ae544d2a8bb12cbd127076004548a8a8a8f8f426040516110e697969594939291906119e0565b60405180910390a3600480549060006110fe83611a40565b919050555050505050505050505050565b600080805b600454811015610acd5760008181526003602090815260408083206001600160a01b038816845260080190915290205460ff161561115a578161115681611a40565b9250505b600101611114565b6002546001600160a01b0316331461118c5760405162461bcd60e51b815260040161031b9061199c565b600155565b606060036000838152602001908152602001600020600901805480602002602001604051908101604052809291908181526020016000905b8282101561133357838290600052602060002090600402016040518060800160405290816000820180546111fc906117fe565b80601f0160208091040260200160405190810160405280929190818152602001828054611228906117fe565b80156112755780601f1061124a57610100808354040283529160200191611275565b820191906000526020600020905b81548152906001019060200180831161125857829003601f168201915b5050505050815260200160018201548152602001600282018054611298906117fe565b80601f01602080910402602001604051908101604052809291908181526020018280546112c4906117fe565b80156113115780601f106112e657610100808354040283529160200191611311565b820191906000526020600020905b8154815290600101906020018083116112f457829003601f168201915b50505050508152602001600382015481525050815260200190600101906111c9565b505050509050919050565b634e487b7160e01b600052604160045260246000fd5b600082601f83011261136557600080fd5b813567ffffffffffffffff808211156113805761138061133e565b604051601f8301601f19908116603f011681019082821181831017156113a8576113a861133e565b816040528381528660208588010111156113c157600080fd5b836020870160208301376000602085830101528094505050505092915050565b600080600080608085870312156113f757600080fd5b84359350602085013567ffffffffffffffff8082111561141657600080fd5b61142288838901611354565b945060408701359350606087013591508082111561143f57600080fd5b5061144c87828801611354565b91505092959194509250565b60006020828403121561146a57600080fd5b81356001600160a01b038116811461148157600080fd5b9392505050565b60005b838110156114a357818101518382015260200161148b565b50506000910152565b600081518084526114c4816020860160208601611488565b601f01601f19169290920160200192915050565b600060208083018184528085518083526040925060408601915060408160051b87010184880160005b838110156115ca57603f1989840301855281516101408151855288820151818a870152611530828701826114ac565b915050878201518582038987015261154882826114ac565b9150506060808301518683038288015261156283826114ac565b925050506080808301518683038288015261157d83826114ac565b60a0858101519089015260c0808601519089015260e08086015190890152610100808601511515908901526101209485015194909701939093525050509386019390860190600101611501565b509098975050505050505050565b6000602082840312156115ea57600080fd5b5035919050565b6001600160a01b0389168152610100602082018190526000906116168382018b6114ac565b9050828103604084015261162a818a6114ac565b9050828103606084015261163e81896114ac565b90508660808401528560a084015282810360c084015261165e81866114ac565b9150508260e08301529998505050505050505050565b60008060008060008060c0878903121561168d57600080fd5b863567ffffffffffffffff808211156116a557600080fd5b6116b18a838b01611354565b975060208901359150808211156116c757600080fd5b6116d38a838b01611354565b965060408901359150808211156116e957600080fd5b6116f58a838b01611354565b9550606089013591508082111561170b57600080fd5b5061171889828a01611354565b9350506080870135915060a087013590509295509295509295565b600060208083018184528085518083526040925060408601915060408160051b87010184880160005b838110156115ca57603f19898403018552815160808151818652611782828701826114ac565b915050888201518986015287820151858203898701526117a282826114ac565b6060938401519690930195909552509487019492509086019060010161175c565b6000602082840312156117d557600080fd5b5051919050565b6000602082840312156117ee57600080fd5b8151801515811461148157600080fd5b600181811c9082168061181257607f821691505b60208210810361183257634e487b7160e01b600052602260045260246000fd5b50919050565b601f821115611884576000816000526020600020601f850160051c810160208610156118615750805b601f850160051c820191505b818110156118805782815560010161186d565b5050505b505050565b815167ffffffffffffffff8111156118a3576118a361133e565b6118b7816118b184546117fe565b84611838565b602080601f8311600181146118ec57600084156118d45750858301515b600019600386901b1c1916600185901b178555611880565b600085815260208120601f198616915b8281101561191b578886015182559484019460019091019084016118fc565b50858210156119395787850151600019600388901b60f8161c191681555b5050505050600190811b01905550565b60808152600061195c60808301876114ac565b856020840152828103604084015261197481866114ac565b91505082606083015295945050505050565b634e487b7160e01b600052603260045260246000fd5b6020808252600e908201526d1b9bdd08185d5d1a1bdc9a5e995960921b604082015260600190565b600082516119d6818460208701611488565b9190910192915050565b87815260e0602082015260006119f960e08301896114ac565b8760408401528660608401528281036080840152611a1781876114ac565b905082810360a0840152611a2b81866114ac565b9150508260c083015298975050505050505050565b600060018201611a6057634e487b7160e01b600052601160045260246000fd5b506001019056fea264697066735822122040efabcb91e7e4ddfc73faa339ebfedad95d7ee545db48d61dfe5e973b6ed9bf64736f6c63430008180033",
  "devdoc": {
    "kind": "dev",
    "methods": {},
    "version": 1
  },
  "userdoc": {
    "kind": "user",
    "methods": {},
    "version": 1
  },
  "storageLayout": {
    "storage": [
      {
        "astId": 12,
        "contract": "contracts/JobBoard.sol:JobBoard",
        "label": "tokenAmountForPosting",
        "offset": 0,
        "slot": "0",
        "type": "t_uint256"
      },
      {
        "astId": 14,
        "contract": "contracts/JobBoard.sol:JobBoard",
        "label": "tokenAmountForApplying",
        "offset": 0,
        "slot": "1",
        "type": "t_uint256"
      },
      {
        "astId": 16,
        "contract": "contracts/JobBoard.sol:JobBoard",
        "label": "owner",
        "offset": 0,
        "slot": "2",
        "type": "t_address"
      },
      {
        "astId": 76,
        "contract": "contracts/JobBoard.sol:JobBoard",
        "label": "jobs",
        "offset": 0,
        "slot": "3",
        "type": "t_mapping(t_uint256,t_struct(Job)50_storage)"
      },
      {
        "astId": 78,
        "contract": "contracts/JobBoard.sol:JobBoard",
        "label": "jobCount",
        "offset": 0,
        "slot": "4",
        "type": "t_uint256"
      }
    ],
    "types": {
      "t_address": {
        "encoding": "inplace",
        "label": "address",
        "numberOfBytes": "20"
      },
      "t_array(t_struct(Application)25_storage)dyn_storage": {
        "base": "t_struct(Application)25_storage",
        "encoding": "dynamic_array",
        "label": "struct JobBoard.Application[]",
        "numberOfBytes": "32"
      },
      "t_bool": {
        "encoding": "inplace",
        "label": "bool",
        "numberOfBytes": "1"
      },
      "t_mapping(t_address,t_bool)": {
        "encoding": "mapping",
        "key": "t_address",
        "label": "mapping(address => bool)",
        "numberOfBytes": "32",
        "value": "t_bool"
      },
      "t_mapping(t_uint256,t_struct(Job)50_storage)": {
        "encoding": "mapping",
        "key": "t_uint256",
        "label": "mapping(uint256 => struct JobBoard.Job)",
        "numberOfBytes": "32",
        "value": "t_struct(Job)50_storage"
      },
      "t_string_storage": {
        "encoding": "bytes",
        "label": "string",
        "numberOfBytes": "32"
      },
      "t_struct(Application)25_storage": {
        "encoding": "inplace",
        "label": "struct JobBoard.Application",
        "members": [
          {
            "astId": 18,
            "contract": "contracts/JobBoard.sol:JobBoard",
            "label": "application",
            "offset": 0,
            "slot": "0",
            "type": "t_string_storage"
          },
          {
            "astId": 20,
            "contract": "contracts/JobBoard.sol:JobBoard",
            "label": "salary",
            "offset": 0,
            "slot": "1",
            "type": "t_uint256"
          },
          {
            "astId": 22,
            "contract": "contracts/JobBoard.sol:JobBoard",
            "label": "location",
            "offset": 0,
            "slot": "2",
            "type": "t_string_storage"
          },
          {
            "astId": 24,
            "contract": "contracts/JobBoard.sol:JobBoard",
            "label": "timestamp",
            "offset": 0,
            "slot": "3",
            "type": "t_uint256"
          }
        ],
        "numberOfBytes": "128"
      },
      "t_struct(Job)50_storage": {
        "encoding": "inplace",
        "label": "struct JobBoard.Job",
        "members": [
          {
            "astId": 27,
            "contract": "contracts/JobBoard.sol:JobBoard",
            "label": "employer",
            "offset": 0,
            "slot": "0",
            "type": "t_address"
          },
          {
            "astId": 29,
            "contract": "contracts/JobBoard.sol:JobBoard",
            "label": "title",
            "offset": 0,
            "slot": "1",
            "type": "t_string_storage"
          },
          {
            "astId": 31,
            "contract": "contracts/JobBoard.sol:JobBoard",
            "label": "description",
            "offset": 0,
            "slot": "2",
            "type": "t_string_storage"
          },
          {
            "astId": 33,
            "contract": "contracts/JobBoard.sol:JobBoard",
            "label": "qualifications",
            "offset": 0,
            "slot": "3",
            "type": "t_string_storage"
          },
          {
            "astId": 35,
            "contract": "contracts/JobBoard.sol:JobBoard",
            "label": "salaryFrom",
            "offset": 0,
            "slot": "4",
            "type": "t_uint256"
          },
          {
            "astId": 37,
            "contract": "contracts/JobBoard.sol:JobBoard",
            "label": "salaryTo",
            "offset": 0,
            "slot": "5",
            "type": "t_uint256"
          },
          {
            "astId": 39,
            "contract": "contracts/JobBoard.sol:JobBoard",
            "label": "location",
            "offset": 0,
            "slot": "6",
            "type": "t_string_storage"
          },
          {
            "astId": 41,
            "contract": "contracts/JobBoard.sol:JobBoard",
            "label": "timestamp",
            "offset": 0,
            "slot": "7",
            "type": "t_uint256"
          },
          {
            "astId": 45,
            "contract": "contracts/JobBoard.sol:JobBoard",
            "label": "applied",
            "offset": 0,
            "slot": "8",
            "type": "t_mapping(t_address,t_bool)"
          },
          {
            "astId": 49,
            "contract": "contracts/JobBoard.sol:JobBoard",
            "label": "applications",
            "offset": 0,
            "slot": "9",
            "type": "t_array(t_struct(Application)25_storage)dyn_storage"
          }
        ],
        "numberOfBytes": "320"
      },
      "t_uint256": {
        "encoding": "inplace",
        "label": "uint256",
        "numberOfBytes": "32"
      }
    }
  }
}