{
  "address": "0xa0Cb20870e591BDd0479483Ce7973838b1BEe551",
  "abi": [
    {
      "anonymous": false,
      "inputs": [
        {
          "indexed": true,
          "internalType": "address",
          "name": "applicant",
          "type": "address"
        },
        {
          "indexed": true,
          "internalType": "uint256",
          "name": "jobId",
          "type": "uint256"
        }
      ],
      "name": "JobApplied",
      "type": "event"
    },
    {
      "anonymous": false,
      "inputs": [
        {
          "indexed": false,
          "internalType": "uint256",
          "name": "jobId",
          "type": "uint256"
        },
        {
          "indexed": true,
          "internalType": "address",
          "name": "employer",
          "type": "address"
        },
        {
          "indexed": false,
          "internalType": "string",
          "name": "description",
          "type": "string"
        },
        {
          "indexed": false,
          "internalType": "string",
          "name": "qualifications",
          "type": "string"
        },
        {
          "indexed": false,
          "internalType": "uint256",
          "name": "rewardPool",
          "type": "uint256"
        }
      ],
      "name": "JobPosted",
      "type": "event"
    },
    {
      "inputs": [
        {
          "internalType": "uint256",
          "name": "_jobId",
          "type": "uint256"
        }
      ],
      "name": "applyForJob",
      "outputs": [],
      "stateMutability": "nonpayable",
      "type": "function"
    },
    {
      "inputs": [],
      "name": "jobCount",
      "outputs": [
        {
          "internalType": "uint256",
          "name": "",
          "type": "uint256"
        }
      ],
      "stateMutability": "view",
      "type": "function"
    },
    {
      "inputs": [
        {
          "internalType": "uint256",
          "name": "",
          "type": "uint256"
        }
      ],
      "name": "jobs",
      "outputs": [
        {
          "internalType": "address",
          "name": "employer",
          "type": "address"
        },
        {
          "internalType": "string",
          "name": "description",
          "type": "string"
        },
        {
          "internalType": "string",
          "name": "qualifications",
          "type": "string"
        },
        {
          "internalType": "uint256",
          "name": "rewardPool",
          "type": "uint256"
        },
        {
          "internalType": "uint256",
          "name": "applicationCount",
          "type": "uint256"
        }
      ],
      "stateMutability": "view",
      "type": "function"
    },
    {
      "inputs": [
        {
          "internalType": "string",
          "name": "_description",
          "type": "string"
        },
        {
          "internalType": "string",
          "name": "_qualifications",
          "type": "string"
        },
        {
          "internalType": "uint256",
          "name": "_rewardPool",
          "type": "uint256"
        }
      ],
      "name": "postJob",
      "outputs": [],
      "stateMutability": "nonpayable",
      "type": "function"
    }
  ],
  "transactionHash": "0x66bc57b9be4eb410c7be61b763039c55f8f14d9e999dbbc0b9c792e215bae319",
  "args": [],
  "numDeployments": 1,
  "solcInputHash": "5c9ba3e015d62e8efc7c505d0cb8039c",
  "bytecode": "0x608060405234801561001057600080fd5b50610721806100206000396000f3fe608060405234801561001057600080fd5b506004361061004c5760003560e01c8063180aedf3146100515780634c5d8a0f1461007e5780635c3b9c4a14610095578063e0c94ae5146100aa575b600080fd5b61006461005f366004610382565b6100bd565b6040516100759594939291906103e1565b60405180910390f35b61008760015481565b604051908152602001610075565b6100a86100a33660046104cf565b610206565b005b6100a86100b8366004610382565b6102b0565b600060208190529081526040902080546001820180546001600160a01b0390921692916100e99061053c565b80601f01602080910402602001604051908101604052809291908181526020018280546101159061053c565b80156101625780601f1061013757610100808354040283529160200191610162565b820191906000526020600020905b81548152906001019060200180831161014557829003601f168201915b5050505050908060020180546101779061053c565b80601f01602080910402602001604051908101604052809291908181526020018280546101a39061053c565b80156101f05780601f106101c5576101008083540402835291602001916101f0565b820191906000526020600020905b8154815290600101906020018083116101d357829003601f168201915b5050505050908060030154908060040154905085565b60018054600090815260208190526040902080546001600160a01b0319163317815590810161023585826105c7565b506002810161024484826105c7565b50600381018290556000600482015560015460405133917f129a903ac78c809a19fd456d79f7f698e1c5b0f0b8c9c4a1a76fe3b3d123366a9161028d9190889088908890610687565b60405180910390a2600180549060006102a5836106c4565b919050555050505050565b60008181526020818152604080832033845260050190915290205460ff16156103115760405162461bcd60e51b815260206004820152600f60248201526e105b1c9958591e48185c1c1b1a5959608a1b604482015260640160405180910390fd5b600081815260208181526040808320338452600581018352908320805460ff191660011790558383529082905260040180549161034d836106c4565b9091555050604051819033907f580957e7f405bf54f358d95420cb5bd1f4f2d15602f7c4984fcfb0f9cf0e946d90600090a350565b60006020828403121561039457600080fd5b5035919050565b6000815180845260005b818110156103c1576020818501810151868301820152016103a5565b506000602082860101526020601f19601f83011685010191505092915050565b6001600160a01b038616815260a0602082018190526000906104059083018761039b565b8281036040840152610417818761039b565b60608401959095525050608001529392505050565b634e487b7160e01b600052604160045260246000fd5b600082601f83011261045357600080fd5b813567ffffffffffffffff8082111561046e5761046e61042c565b604051601f8301601f19908116603f011681019082821181831017156104965761049661042c565b816040528381528660208588010111156104af57600080fd5b836020870160208301376000602085830101528094505050505092915050565b6000806000606084860312156104e457600080fd5b833567ffffffffffffffff808211156104fc57600080fd5b61050887838801610442565b9450602086013591508082111561051e57600080fd5b5061052b86828701610442565b925050604084013590509250925092565b600181811c9082168061055057607f821691505b60208210810361057057634e487b7160e01b600052602260045260246000fd5b50919050565b601f8211156105c2576000816000526020600020601f850160051c8101602086101561059f5750805b601f850160051c820191505b818110156105be578281556001016105ab565b5050505b505050565b815167ffffffffffffffff8111156105e1576105e161042c565b6105f5816105ef845461053c565b84610576565b602080601f83116001811461062a57600084156106125750858301515b600019600386901b1c1916600185901b1785556105be565b600085815260208120601f198616915b828110156106595788860151825594840194600190910190840161063a565b50858210156106775787850151600019600388901b60f8161c191681555b5050505050600190811b01905550565b8481526080602082015260006106a0608083018661039b565b82810360408401526106b2818661039b565b91505082606083015295945050505050565b6000600182016106e457634e487b7160e01b600052601160045260246000fd5b506001019056fea26469706673582212209ebbbfc6a0232ec5d7841c6c1d8aa6693b146c7459487ad07e19eb53423f979464736f6c63430008180033",
  "devdoc": {
    "kind": "dev",
    "methods": {},
    "version": 1
  },
  "userdoc": {
    "kind": "user",
    "methods": {},
    "version": 1
  },
  "storageLayout": {
    "storage": [
      {
        "astId": 808,
        "contract": "contracts/JobBoard.sol:JobBoard",
        "label": "jobs",
        "offset": 0,
        "slot": "0",
        "type": "t_mapping(t_uint256,t_struct(Job)803_storage)"
      },
      {
        "astId": 810,
        "contract": "contracts/JobBoard.sol:JobBoard",
        "label": "jobCount",
        "offset": 0,
        "slot": "1",
        "type": "t_uint256"
      }
    ],
    "types": {
      "t_address": {
        "encoding": "inplace",
        "label": "address",
        "numberOfBytes": "20"
      },
      "t_bool": {
        "encoding": "inplace",
        "label": "bool",
        "numberOfBytes": "1"
      },
      "t_mapping(t_address,t_bool)": {
        "encoding": "mapping",
        "key": "t_address",
        "label": "mapping(address => bool)",
        "numberOfBytes": "32",
        "value": "t_bool"
      },
      "t_mapping(t_uint256,t_struct(Job)803_storage)": {
        "encoding": "mapping",
        "key": "t_uint256",
        "label": "mapping(uint256 => struct JobBoard.Job)",
        "numberOfBytes": "32",
        "value": "t_struct(Job)803_storage"
      },
      "t_string_storage": {
        "encoding": "bytes",
        "label": "string",
        "numberOfBytes": "32"
      },
      "t_struct(Job)803_storage": {
        "encoding": "inplace",
        "label": "struct JobBoard.Job",
        "members": [
          {
            "astId": 790,
            "contract": "contracts/JobBoard.sol:JobBoard",
            "label": "employer",
            "offset": 0,
            "slot": "0",
            "type": "t_address"
          },
          {
            "astId": 792,
            "contract": "contracts/JobBoard.sol:JobBoard",
            "label": "description",
            "offset": 0,
            "slot": "1",
            "type": "t_string_storage"
          },
          {
            "astId": 794,
            "contract": "contracts/JobBoard.sol:JobBoard",
            "label": "qualifications",
            "offset": 0,
            "slot": "2",
            "type": "t_string_storage"
          },
          {
            "astId": 796,
            "contract": "contracts/JobBoard.sol:JobBoard",
            "label": "rewardPool",
            "offset": 0,
            "slot": "3",
            "type": "t_uint256"
          },
          {
            "astId": 798,
            "contract": "contracts/JobBoard.sol:JobBoard",
            "label": "applicationCount",
            "offset": 0,
            "slot": "4",
            "type": "t_uint256"
          },
          {
            "astId": 802,
            "contract": "contracts/JobBoard.sol:JobBoard",
            "label": "applicants",
            "offset": 0,
            "slot": "5",
            "type": "t_mapping(t_address,t_bool)"
          }
        ],
        "numberOfBytes": "192"
      },
      "t_uint256": {
        "encoding": "inplace",
        "label": "uint256",
        "numberOfBytes": "32"
      }
    }
  }
}