{
  "address": "0x84F96C678283F349EAACEc6b40c20Cc38C5b6733",
  "abi": [
    {
      "inputs": [
        {
          "internalType": "address",
          "name": "_tokenAddress",
          "type": "address"
        }
      ],
      "stateMutability": "nonpayable",
      "type": "constructor"
    },
    {
      "anonymous": false,
      "inputs": [
        {
          "indexed": true,
          "internalType": "address",
          "name": "applicant",
          "type": "address"
        },
        {
          "indexed": true,
          "internalType": "uint256",
          "name": "jobId",
          "type": "uint256"
        },
        {
          "indexed": false,
          "internalType": "string",
          "name": "application",
          "type": "string"
        },
        {
          "indexed": false,
          "internalType": "uint256",
          "name": "salary",
          "type": "uint256"
        },
        {
          "indexed": false,
          "internalType": "string",
          "name": "location",
          "type": "string"
        },
        {
          "indexed": false,
          "internalType": "uint256",
          "name": "timestamp",
          "type": "uint256"
        }
      ],
      "name": "JobApplied",
      "type": "event"
    },
    {
      "anonymous": false,
      "inputs": [
        {
          "indexed": false,
          "internalType": "uint256",
          "name": "jobId",
          "type": "uint256"
        },
        {
          "indexed": true,
          "internalType": "address",
          "name": "employer",
          "type": "address"
        },
        {
          "indexed": true,
          "internalType": "string",
          "name": "title",
          "type": "string"
        },
        {
          "indexed": false,
          "internalType": "string",
          "name": "location",
          "type": "string"
        },
        {
          "indexed": false,
          "internalType": "uint256",
          "name": "salaryFrom",
          "type": "uint256"
        },
        {
          "indexed": false,
          "internalType": "uint256",
          "name": "salaryTo",
          "type": "uint256"
        },
        {
          "indexed": false,
          "internalType": "string",
          "name": "description",
          "type": "string"
        },
        {
          "indexed": false,
          "internalType": "string",
          "name": "qualifications",
          "type": "string"
        },
        {
          "indexed": false,
          "internalType": "uint256",
          "name": "timestamp",
          "type": "uint256"
        }
      ],
      "name": "JobPosted",
      "type": "event"
    },
    {
      "inputs": [
        {
          "internalType": "uint256",
          "name": "_jobId",
          "type": "uint256"
        },
        {
          "internalType": "string",
          "name": "_application",
          "type": "string"
        },
        {
          "internalType": "string",
          "name": "_location",
          "type": "string"
        },
        {
          "internalType": "uint256",
          "name": "_salary",
          "type": "uint256"
        }
      ],
      "name": "applyForJob",
      "outputs": [],
      "stateMutability": "nonpayable",
      "type": "function"
    },
    {
      "inputs": [
        {
          "internalType": "address",
          "name": "_address",
          "type": "address"
        }
      ],
      "name": "getAllJobs",
      "outputs": [
        {
          "components": [
            {
              "internalType": "address",
              "name": "employer",
              "type": "address"
            },
            {
              "internalType": "uint256",
              "name": "id",
              "type": "uint256"
            },
            {
              "internalType": "string",
              "name": "title",
              "type": "string"
            },
            {
              "internalType": "string",
              "name": "description",
              "type": "string"
            },
            {
              "internalType": "string",
              "name": "qualifications",
              "type": "string"
            },
            {
              "internalType": "string",
              "name": "location",
              "type": "string"
            },
            {
              "internalType": "uint256",
              "name": "salaryFrom",
              "type": "uint256"
            },
            {
              "internalType": "uint256",
              "name": "salaryTo",
              "type": "uint256"
            },
            {
              "internalType": "uint256",
              "name": "applicationCount",
              "type": "uint256"
            },
            {
              "internalType": "bool",
              "name": "applied",
              "type": "bool"
            },
            {
              "internalType": "string",
              "name": "siteURL",
              "type": "string"
            },
            {
              "internalType": "uint256",
              "name": "timestamp",
              "type": "uint256"
            }
          ],
          "internalType": "struct JobBoard.JobList[]",
          "name": "",
          "type": "tuple[]"
        }
      ],
      "stateMutability": "view",
      "type": "function"
    },
    {
      "inputs": [
        {
          "internalType": "address",
          "name": "_address",
          "type": "address"
        }
      ],
      "name": "getApplicationCount",
      "outputs": [
        {
          "internalType": "uint256",
          "name": "",
          "type": "uint256"
        }
      ],
      "stateMutability": "view",
      "type": "function"
    },
    {
      "inputs": [
        {
          "internalType": "uint256",
          "name": "_jobId",
          "type": "uint256"
        }
      ],
      "name": "getApplications",
      "outputs": [
        {
          "components": [
            {
              "internalType": "address",
              "name": "candidate",
              "type": "address"
            },
            {
              "internalType": "string",
              "name": "application",
              "type": "string"
            },
            {
              "internalType": "uint256",
              "name": "salary",
              "type": "uint256"
            },
            {
              "internalType": "string",
              "name": "location",
              "type": "string"
            },
            {
              "internalType": "uint256",
              "name": "timestamp",
              "type": "uint256"
            }
          ],
          "internalType": "struct JobBoard.Application[]",
          "name": "",
          "type": "tuple[]"
        }
      ],
      "stateMutability": "view",
      "type": "function"
    },
    {
      "inputs": [
        {
          "internalType": "address",
          "name": "_address",
          "type": "address"
        }
      ],
      "name": "getApplicationsQuality",
      "outputs": [
        {
          "internalType": "uint256",
          "name": "",
          "type": "uint256"
        }
      ],
      "stateMutability": "view",
      "type": "function"
    },
    {
      "inputs": [],
      "name": "jobCount",
      "outputs": [
        {
          "internalType": "uint256",
          "name": "",
          "type": "uint256"
        }
      ],
      "stateMutability": "view",
      "type": "function"
    },
    {
      "inputs": [
        {
          "internalType": "uint256",
          "name": "",
          "type": "uint256"
        }
      ],
      "name": "jobs",
      "outputs": [
        {
          "internalType": "address",
          "name": "employer",
          "type": "address"
        },
        {
          "internalType": "string",
          "name": "title",
          "type": "string"
        },
        {
          "internalType": "string",
          "name": "description",
          "type": "string"
        },
        {
          "internalType": "string",
          "name": "qualifications",
          "type": "string"
        },
        {
          "internalType": "uint256",
          "name": "salaryFrom",
          "type": "uint256"
        },
        {
          "internalType": "uint256",
          "name": "salaryTo",
          "type": "uint256"
        },
        {
          "internalType": "string",
          "name": "location",
          "type": "string"
        },
        {
          "internalType": "string",
          "name": "siteURL",
          "type": "string"
        },
        {
          "internalType": "uint256",
          "name": "timestamp",
          "type": "uint256"
        }
      ],
      "stateMutability": "view",
      "type": "function"
    },
    {
      "inputs": [],
      "name": "mainToken",
      "outputs": [
        {
          "internalType": "contract IERC20",
          "name": "",
          "type": "address"
        }
      ],
      "stateMutability": "view",
      "type": "function"
    },
    {
      "inputs": [],
      "name": "owner",
      "outputs": [
        {
          "internalType": "address",
          "name": "",
          "type": "address"
        }
      ],
      "stateMutability": "view",
      "type": "function"
    },
    {
      "inputs": [
        {
          "internalType": "string",
          "name": "_title",
          "type": "string"
        },
        {
          "internalType": "string",
          "name": "_description",
          "type": "string"
        },
        {
          "internalType": "string",
          "name": "_qualifications",
          "type": "string"
        },
        {
          "internalType": "string",
          "name": "_location",
          "type": "string"
        },
        {
          "internalType": "uint256",
          "name": "_salaryFrom",
          "type": "uint256"
        },
        {
          "internalType": "uint256",
          "name": "_salaryTo",
          "type": "uint256"
        },
        {
          "internalType": "string",
          "name": "_siteURL",
          "type": "string"
        }
      ],
      "name": "postJob",
      "outputs": [],
      "stateMutability": "nonpayable",
      "type": "function"
    },
    {
      "inputs": [
        {
          "internalType": "uint256",
          "name": "_tokenAmount",
          "type": "uint256"
        }
      ],
      "name": "setTokenAmountForApplying",
      "outputs": [],
      "stateMutability": "nonpayable",
      "type": "function"
    },
    {
      "inputs": [
        {
          "internalType": "uint256",
          "name": "_tokenAmount",
          "type": "uint256"
        }
      ],
      "name": "setTokenAmountForPosting",
      "outputs": [],
      "stateMutability": "nonpayable",
      "type": "function"
    },
    {
      "inputs": [],
      "name": "tokenAmountForApplying",
      "outputs": [
        {
          "internalType": "uint256",
          "name": "",
          "type": "uint256"
        }
      ],
      "stateMutability": "view",
      "type": "function"
    },
    {
      "inputs": [],
      "name": "tokenAmountForPosting",
      "outputs": [
        {
          "internalType": "uint256",
          "name": "",
          "type": "uint256"
        }
      ],
      "stateMutability": "view",
      "type": "function"
    },
    {
      "inputs": [
        {
          "internalType": "address",
          "name": "_address",
          "type": "address"
        }
      ],
      "name": "trasnferOwner",
      "outputs": [],
      "stateMutability": "nonpayable",
      "type": "function"
    }
  ],
  "transactionHash": "0xfb0b68874e8def10c3e1d5ffe20522efd70551c201d928a97dec801a45125a88",
  "args": [
    "0x407585c982D93cce34b60FC93A13d8A758A588be"
  ],
  "numDeployments": 15,
  "solcInputHash": "ce56c52a3693b997896500e81d86ed31",
  "bytecode": "0x60a060405234801561001057600080fd5b506040516120d43803806120d483398101604081905261002f9161006a565b600280546001600160a01b031916331790556001600160a01b0316608052670de0b6b3a7640000600155671bc16d674ec8000060005561009a565b60006020828403121561007c57600080fd5b81516001600160a01b038116811461009357600080fd5b9392505050565b6080516120036100d16000396000818161019901528181610c0301528181610d0b01528181611293015261138a01526120036000f3fe608060405234801561001057600080fd5b50600436106100f55760003560e01c80634c5d8a0f11610097578063b2f2f17b11610066578063b2f2f17b14610228578063bc8c937d1461023b578063d16524771461025b578063dde0cd4d1461026457600080fd5b80634c5d8a0f146101e65780635a46204b146101ef5780638da5cb5b146102025780639f6e71bb1461021557600080fd5b80632ef5ec18116100d35780632ef5ec18146101605780633a041618146101735780633fc15f15146101945780634b5ced37146101d357600080fd5b80630dec01ea146100fa578063180aedf314610123578063203825d61461014b575b600080fd5b61010d610108366004611775565b61026d565b60405161011a91906117f5565b60405180910390f35b61013661013136600461192a565b6108e6565b60405161011a99989796959493929190611943565b61015e610159366004611a7f565b610bdf565b005b61015e61016e366004611775565b610e70565b610186610181366004611775565b610ebc565b60405190815260200161011a565b6101bb7f000000000000000000000000000000000000000000000000000000000000000081565b6040516001600160a01b03909116815260200161011a565b61015e6101e136600461192a565b6111f9565b61018660045481565b6101866101fd366004611775565b611228565b6002546101bb906001600160a01b031681565b61015e610223366004611b64565b611278565b61015e61023636600461192a565b611583565b61024e61024936600461192a565b6115b2565b60405161011a9190611bd9565b61018660005481565b61018660015481565b6060600060045467ffffffffffffffff81111561028c5761028c6119dc565b60405190808252806020026020018201604052801561032c57816020015b61031960405180610180016040528060006001600160a01b03168152602001600081526020016060815260200160608152602001606081526020016060815260200160008152602001600081526020016000815260200160001515815260200160608152602001600081525090565b8152602001906001900390816102aa5790505b50905060005b6004548110156108df5760008181526003602052604090205482516001600160a01b039091169083908390811061036b5761036b611c7f565b6020026020010151600001906001600160a01b031690816001600160a01b031681525050808282815181106103a2576103a2611c7f565b602002602001015160200181815250506003600082815260200190815260200160002060010180546103d390611c95565b80601f01602080910402602001604051908101604052809291908181526020018280546103ff90611c95565b801561044c5780601f106104215761010080835404028352916020019161044c565b820191906000526020600020905b81548152906001019060200180831161042f57829003601f168201915b505050505082828151811061046357610463611c7f565b60200260200101516040018190525060036000828152602001908152602001600020600201805461049390611c95565b80601f01602080910402602001604051908101604052809291908181526020018280546104bf90611c95565b801561050c5780601f106104e15761010080835404028352916020019161050c565b820191906000526020600020905b8154815290600101906020018083116104ef57829003601f168201915b505050505082828151811061052357610523611c7f565b60200260200101516060018190525060036000828152602001908152602001600020600301805461055390611c95565b80601f016020809104026020016040519081016040528092919081815260200182805461057f90611c95565b80156105cc5780601f106105a1576101008083540402835291602001916105cc565b820191906000526020600020905b8154815290600101906020018083116105af57829003601f168201915b50505050508282815181106105e3576105e3611c7f565b60200260200101516080018190525060036000828152602001908152602001600020600601805461061390611c95565b80601f016020809104026020016040519081016040528092919081815260200182805461063f90611c95565b801561068c5780601f106106615761010080835404028352916020019161068c565b820191906000526020600020905b81548152906001019060200180831161066f57829003601f168201915b50505050508282815181106106a3576106a3611c7f565b602002602001015160a0018190525060036000828152602001908152602001600020600401548282815181106106db576106db611c7f565b602002602001015160c0018181525050600360008281526020019081526020016000206005015482828151811061071457610714611c7f565b60209081029190910181015160e0019190915260008281526003825260408082206001600160a01b038816835260090190925220541561077c57600182828151811061076257610762611c7f565b6020908102919091010151901515610120909101526107a6565b600082828151811061079057610790611c7f565b6020908102919091010151901515610120909101525b6000818152600360205260409020600a015482518390839081106107cc576107cc611c7f565b60200260200101516101000181815250506003600082815260200190815260200160002060070180546107fe90611c95565b80601f016020809104026020016040519081016040528092919081815260200182805461082a90611c95565b80156108775780601f1061084c57610100808354040283529160200191610877565b820191906000526020600020905b81548152906001019060200180831161085a57829003601f168201915b505050505082828151811061088e5761088e611c7f565b6020026020010151610140018190525060036000828152602001908152602001600020600801548282815181106108c7576108c7611c7f565b60209081029190910101516101600152600101610332565b5092915050565b600360205260009081526040902080546001820180546001600160a01b03909216929161091290611c95565b80601f016020809104026020016040519081016040528092919081815260200182805461093e90611c95565b801561098b5780601f106109605761010080835404028352916020019161098b565b820191906000526020600020905b81548152906001019060200180831161096e57829003601f168201915b5050505050908060020180546109a090611c95565b80601f01602080910402602001604051908101604052809291908181526020018280546109cc90611c95565b8015610a195780601f106109ee57610100808354040283529160200191610a19565b820191906000526020600020905b8154815290600101906020018083116109fc57829003601f168201915b505050505090806003018054610a2e90611c95565b80601f0160208091040260200160405190810160405280929190818152602001828054610a5a90611c95565b8015610aa75780601f10610a7c57610100808354040283529160200191610aa7565b820191906000526020600020905b815481529060010190602001808311610a8a57829003601f168201915b505050505090806004015490806005015490806006018054610ac890611c95565b80601f0160208091040260200160405190810160405280929190818152602001828054610af490611c95565b8015610b415780601f10610b1657610100808354040283529160200191610b41565b820191906000526020600020905b815481529060010190602001808311610b2457829003601f168201915b505050505090806007018054610b5690611c95565b80601f0160208091040260200160405190810160405280929190818152602001828054610b8290611c95565b8015610bcf5780601f10610ba457610100808354040283529160200191610bcf565b820191906000526020600020905b815481529060010190602001808311610bb257829003601f168201915b5050505050908060080154905089565b600080546040516370a0823160e01b81523360048201529091906001600160a01b037f000000000000000000000000000000000000000000000000000000000000000016906370a0823190602401602060405180830381865afa158015610c4a573d6000803e3d6000fd5b505050506040513d601f19601f82011682018060405250810190610c6e9190611ccf565b9050818111610cc45760405162461bcd60e51b815260206004820152601b60248201527f496e73756666696369656e7420546f6b656e2042616c616e63652e000000000060448201526064015b60405180910390fd5b60048054600090815260036020526040808220600254925491516323b872dd60e01b815233948101949094526001600160a01b0392831660248501526044840191909152917f0000000000000000000000000000000000000000000000000000000000000000909116906323b872dd906064016020604051808303816000875af1158015610d56573d6000803e3d6000fd5b505050506040513d601f19601f82011682018060405250810190610d7a9190611ce8565b5080546001600160a01b0319163317815560018101610d998b82611d5b565b5060028101610da88a82611d5b565b5060038101610db78982611d5b565b5060068101610dc68882611d5b565b50600481018690556005810185905542600882015560078101610de98582611d5b565b5089604051610df89190611e1b565b6040518091039020336001600160a01b03167fe5c3805e99eea74dd1dfca0fc6d4af1b8ecaeb7f191ae544d2a8bb12cbd127076004548a8a8a8f8f42604051610e479796959493929190611e37565b60405180910390a360048054906000610e5f83611ead565b919050555050505050505050505050565b6002546001600160a01b03163314610e9a5760405162461bcd60e51b8152600401610cbb90611ec6565b600280546001600160a01b0319166001600160a01b0392909216919091179055565b600080805b6004548110156108df5760008181526003602090815260408083206001600160a01b0388168452600901909152902054156111f15760008181526003602090815260408083206001600160a01b038816845260098101909252822054600a90910190610f2f90600190611eee565b81548110610f3f57610f3f611c7f565b60009182526020808320600260059093020191909101548483526003825260408084206001600160a01b038a16855260098101909352832054909350600a90910190610f8d90600190611eee565b81548110610f9d57610f9d611c7f565b90600052602060002090600502016003018054610fb990611c95565b80601f0160208091040260200160405190810160405280929190818152602001828054610fe590611c95565b80156110325780601f1061100757610100808354040283529160200191611032565b820191906000526020600020905b81548152906001019060200180831161101557829003601f168201915b50505060008681526003602090815260408083206001600160a01b038d168452600981019092528220549495509093600a90910192506110759150600190611eee565b8154811061108557611085611c7f565b906000526020600020906005020160010180546110a190611c95565b80601f01602080910402602001604051908101604052809291908181526020018280546110cd90611c95565b801561111a5780601f106110ef5761010080835404028352916020019161111a565b820191906000526020600020905b8154815290600101906020018083116110fd57829003601f168201915b5050506000878152600360205260409020600401549293505050831080159061115457506000848152600360205260409020600501548311155b1561116757611164600186611f07565b94505b816040516020016111789190611e1b565b60408051601f1981840301815282825280516020918201206000888152600383529290922091926111ad926006019101611f1a565b60405160208183030381529060405280519060200120036111d6576111d3600286611f07565b94505b60648151106111ed576111ea600286611f07565b94505b5050505b600101610ec1565b6002546001600160a01b031633146112235760405162461bcd60e51b8152600401610cbb90611ec6565b600055565b600080805b6004548110156108df5760008181526003602090815260408083206001600160a01b038816845260090190915290205415611270578161126c81611ead565b9250505b60010161122d565b6001546040516370a0823160e01b81523360048201526000907f00000000000000000000000000000000000000000000000000000000000000006001600160a01b0316906370a0823190602401602060405180830381865afa1580156112e2573d6000803e3d6000fd5b505050506040513d601f19601f820116820180604052508101906113069190611ccf565b90508181116113575760405162461bcd60e51b815260206004820152601b60248201527f496e73756666696369656e7420546f6b656e2042616c616e63652e00000000006044820152606401610cbb565b6002546001546040516323b872dd60e01b81523360048201526001600160a01b03928316602482015260448101919091527f0000000000000000000000000000000000000000000000000000000000000000909116906323b872dd906064016020604051808303816000875af11580156113d5573d6000803e3d6000fd5b505050506040513d601f19601f820116820180604052508101906113f99190611ce8565b506000868152600360209081526040808320338452600901909152902054156114565760405162461bcd60e51b815260206004820152600f60248201526e105b1c9958591e48185c1c1b1a5959608a1b6044820152606401610cbb565b6000868152600360205260409020600a0154611473906001611f07565b60008781526003602081815260408084203380865260098201845282862096909655928252805160a0810182529485528482018a815290850188905260608501899052426080860152600a90920180546001808201835591855291909320845160059092020180546001600160a01b0319166001600160a01b03909216919091178155905190918201906115079082611d5b565b5060408201516002820155606082015160038201906115269082611d5b565b5060808201518160040155505085336001600160a01b03167fd11767720323f8aa9c4b5e0b9f837d6cf8b906e6bd5dfe02559f21e9450b1d5d878688426040516115739493929190611f90565b60405180910390a3505050505050565b6002546001600160a01b031633146115ad5760405162461bcd60e51b8152600401610cbb90611ec6565b600155565b606060036000838152602001908152602001600020600a01805480602002602001604051908101604052809291908181526020016000905b8282101561176a5760008481526020908190206040805160a081019091526005850290910180546001600160a01b03168252600181018054929391929184019161163390611c95565b80601f016020809104026020016040519081016040528092919081815260200182805461165f90611c95565b80156116ac5780601f10611681576101008083540402835291602001916116ac565b820191906000526020600020905b81548152906001019060200180831161168f57829003601f168201915b50505050508152602001600282015481526020016003820180546116cf90611c95565b80601f01602080910402602001604051908101604052809291908181526020018280546116fb90611c95565b80156117485780601f1061171d57610100808354040283529160200191611748565b820191906000526020600020905b81548152906001019060200180831161172b57829003601f168201915b50505050508152602001600482015481525050815260200190600101906115ea565b505050509050919050565b60006020828403121561178757600080fd5b81356001600160a01b038116811461179e57600080fd5b9392505050565b60005b838110156117c05781810151838201526020016117a8565b50506000910152565b600081518084526117e18160208601602086016117a5565b601f01601f19169290920160200192915050565b600060208083018184528085518083526040925060408601915060408160051b87010184880160005b8381101561191c57888303603f19018552815180516001600160a01b03168452610180888201518986015287820151818987015261185e828701826117c9565b9150506060808301518683038288015261187883826117c9565b925050506080808301518683038288015261189383826117c9565b9250505060a080830151868303828801526118ae83826117c9565b60c0858101519089015260e0808601519089015261010080860151908901526101208086015115159089015261014080860151898303828b0152919450925090506118f983826117c9565b61016094850151979094019690965250509487019492509086019060010161181e565b509098975050505050505050565b60006020828403121561193c57600080fd5b5035919050565b6001600160a01b038a168152610120602082018190526000906119688382018c6117c9565b9050828103604084015261197c818b6117c9565b90508281036060840152611990818a6117c9565b90508760808401528660a084015282810360c08401526119b081876117c9565b905082810360e08401526119c481866117c9565b915050826101008301529a9950505050505050505050565b634e487b7160e01b600052604160045260246000fd5b600082601f830112611a0357600080fd5b813567ffffffffffffffff80821115611a1e57611a1e6119dc565b604051601f8301601f19908116603f01168101908282118183101715611a4657611a466119dc565b81604052838152866020858801011115611a5f57600080fd5b836020870160208301376000602085830101528094505050505092915050565b600080600080600080600060e0888a031215611a9a57600080fd5b873567ffffffffffffffff80821115611ab257600080fd5b611abe8b838c016119f2565b985060208a0135915080821115611ad457600080fd5b611ae08b838c016119f2565b975060408a0135915080821115611af657600080fd5b611b028b838c016119f2565b965060608a0135915080821115611b1857600080fd5b611b248b838c016119f2565b955060808a0135945060a08a0135935060c08a0135915080821115611b4857600080fd5b50611b558a828b016119f2565b91505092959891949750929550565b60008060008060808587031215611b7a57600080fd5b84359350602085013567ffffffffffffffff80821115611b9957600080fd5b611ba5888389016119f2565b94506040870135915080821115611bbb57600080fd5b50611bc8878288016119f2565b949793965093946060013593505050565b600060208083018184528085518083526040925060408601915060408160051b87010184880160005b8381101561191c57888303603f19018552815180516001600160a01b031684528781015160a089860181905290611c3b828701826117c9565b915050878201518886015260608083015186830382880152611c5d83826117c9565b6080948501519790940196909652505094870194925090860190600101611c02565b634e487b7160e01b600052603260045260246000fd5b600181811c90821680611ca957607f821691505b602082108103611cc957634e487b7160e01b600052602260045260246000fd5b50919050565b600060208284031215611ce157600080fd5b5051919050565b600060208284031215611cfa57600080fd5b8151801515811461179e57600080fd5b601f821115611d56576000816000526020600020601f850160051c81016020861015611d335750805b601f850160051c820191505b81811015611d5257828155600101611d3f565b5050505b505050565b815167ffffffffffffffff811115611d7557611d756119dc565b611d8981611d838454611c95565b84611d0a565b602080601f831160018114611dbe5760008415611da65750858301515b600019600386901b1c1916600185901b178555611d52565b600085815260208120601f198616915b82811015611ded57888601518255948401946001909101908401611dce565b5085821015611e0b5787850151600019600388901b60f8161c191681555b5050505050600190811b01905550565b60008251611e2d8184602087016117a5565b9190910192915050565b87815260e060208201526000611e5060e08301896117c9565b8760408401528660608401528281036080840152611e6e81876117c9565b905082810360a0840152611e8281866117c9565b9150508260c083015298975050505050505050565b634e487b7160e01b600052601160045260246000fd5b600060018201611ebf57611ebf611e97565b5060010190565b6020808252600e908201526d1b9bdd08185d5d1a1bdc9a5e995960921b604082015260600190565b81810381811115611f0157611f01611e97565b92915050565b80820180821115611f0157611f01611e97565b6000808354611f2881611c95565b60018281168015611f405760018114611f5557611f84565b60ff1984168752821515830287019450611f84565b8760005260208060002060005b85811015611f7b5781548a820152908401908201611f62565b50505082870194505b50929695505050505050565b608081526000611fa360808301876117c9565b8560208401528281036040840152611fbb81866117c9565b9150508260608301529594505050505056fea2646970667358221220a403fa7808fb775f24d5266409b09dab21c88ef0d75dc806126584ed1e711c0464736f6c63430008180033",
  "devdoc": {
    "kind": "dev",
    "methods": {},
    "version": 1
  },
  "userdoc": {
    "kind": "user",
    "methods": {},
    "version": 1
  },
  "storageLayout": {
    "storage": [
      {
        "astId": 9,
        "contract": "contracts/JobBoard.sol:JobBoard",
        "label": "tokenAmountForPosting",
        "offset": 0,
        "slot": "0",
        "type": "t_uint256"
      },
      {
        "astId": 11,
        "contract": "contracts/JobBoard.sol:JobBoard",
        "label": "tokenAmountForApplying",
        "offset": 0,
        "slot": "1",
        "type": "t_uint256"
      },
      {
        "astId": 13,
        "contract": "contracts/JobBoard.sol:JobBoard",
        "label": "owner",
        "offset": 0,
        "slot": "2",
        "type": "t_address"
      },
      {
        "astId": 81,
        "contract": "contracts/JobBoard.sol:JobBoard",
        "label": "jobs",
        "offset": 0,
        "slot": "3",
        "type": "t_mapping(t_uint256,t_struct(Job)51_storage)"
      },
      {
        "astId": 83,
        "contract": "contracts/JobBoard.sol:JobBoard",
        "label": "jobCount",
        "offset": 0,
        "slot": "4",
        "type": "t_uint256"
      }
    ],
    "types": {
      "t_address": {
        "encoding": "inplace",
        "label": "address",
        "numberOfBytes": "20"
      },
      "t_array(t_struct(Application)24_storage)dyn_storage": {
        "base": "t_struct(Application)24_storage",
        "encoding": "dynamic_array",
        "label": "struct JobBoard.Application[]",
        "numberOfBytes": "32"
      },
      "t_mapping(t_address,t_uint256)": {
        "encoding": "mapping",
        "key": "t_address",
        "label": "mapping(address => uint256)",
        "numberOfBytes": "32",
        "value": "t_uint256"
      },
      "t_mapping(t_uint256,t_struct(Job)51_storage)": {
        "encoding": "mapping",
        "key": "t_uint256",
        "label": "mapping(uint256 => struct JobBoard.Job)",
        "numberOfBytes": "32",
        "value": "t_struct(Job)51_storage"
      },
      "t_string_storage": {
        "encoding": "bytes",
        "label": "string",
        "numberOfBytes": "32"
      },
      "t_struct(Application)24_storage": {
        "encoding": "inplace",
        "label": "struct JobBoard.Application",
        "members": [
          {
            "astId": 15,
            "contract": "contracts/JobBoard.sol:JobBoard",
            "label": "candidate",
            "offset": 0,
            "slot": "0",
            "type": "t_address"
          },
          {
            "astId": 17,
            "contract": "contracts/JobBoard.sol:JobBoard",
            "label": "application",
            "offset": 0,
            "slot": "1",
            "type": "t_string_storage"
          },
          {
            "astId": 19,
            "contract": "contracts/JobBoard.sol:JobBoard",
            "label": "salary",
            "offset": 0,
            "slot": "2",
            "type": "t_uint256"
          },
          {
            "astId": 21,
            "contract": "contracts/JobBoard.sol:JobBoard",
            "label": "location",
            "offset": 0,
            "slot": "3",
            "type": "t_string_storage"
          },
          {
            "astId": 23,
            "contract": "contracts/JobBoard.sol:JobBoard",
            "label": "timestamp",
            "offset": 0,
            "slot": "4",
            "type": "t_uint256"
          }
        ],
        "numberOfBytes": "160"
      },
      "t_struct(Job)51_storage": {
        "encoding": "inplace",
        "label": "struct JobBoard.Job",
        "members": [
          {
            "astId": 26,
            "contract": "contracts/JobBoard.sol:JobBoard",
            "label": "employer",
            "offset": 0,
            "slot": "0",
            "type": "t_address"
          },
          {
            "astId": 28,
            "contract": "contracts/JobBoard.sol:JobBoard",
            "label": "title",
            "offset": 0,
            "slot": "1",
            "type": "t_string_storage"
          },
          {
            "astId": 30,
            "contract": "contracts/JobBoard.sol:JobBoard",
            "label": "description",
            "offset": 0,
            "slot": "2",
            "type": "t_string_storage"
          },
          {
            "astId": 32,
            "contract": "contracts/JobBoard.sol:JobBoard",
            "label": "qualifications",
            "offset": 0,
            "slot": "3",
            "type": "t_string_storage"
          },
          {
            "astId": 34,
            "contract": "contracts/JobBoard.sol:JobBoard",
            "label": "salaryFrom",
            "offset": 0,
            "slot": "4",
            "type": "t_uint256"
          },
          {
            "astId": 36,
            "contract": "contracts/JobBoard.sol:JobBoard",
            "label": "salaryTo",
            "offset": 0,
            "slot": "5",
            "type": "t_uint256"
          },
          {
            "astId": 38,
            "contract": "contracts/JobBoard.sol:JobBoard",
            "label": "location",
            "offset": 0,
            "slot": "6",
            "type": "t_string_storage"
          },
          {
            "astId": 40,
            "contract": "contracts/JobBoard.sol:JobBoard",
            "label": "siteURL",
            "offset": 0,
            "slot": "7",
            "type": "t_string_storage"
          },
          {
            "astId": 42,
            "contract": "contracts/JobBoard.sol:JobBoard",
            "label": "timestamp",
            "offset": 0,
            "slot": "8",
            "type": "t_uint256"
          },
          {
            "astId": 46,
            "contract": "contracts/JobBoard.sol:JobBoard",
            "label": "applied",
            "offset": 0,
            "slot": "9",
            "type": "t_mapping(t_address,t_uint256)"
          },
          {
            "astId": 50,
            "contract": "contracts/JobBoard.sol:JobBoard",
            "label": "applications",
            "offset": 0,
            "slot": "10",
            "type": "t_array(t_struct(Application)24_storage)dyn_storage"
          }
        ],
        "numberOfBytes": "352"
      },
      "t_uint256": {
        "encoding": "inplace",
        "label": "uint256",
        "numberOfBytes": "32"
      }
    }
  }
}