{
  "address": "0xa5b9a41d9fE7C966Ae3abd0e373e5315BFEE8c0B",
  "abi": [
    {
      "inputs": [
        {
          "internalType": "address",
          "name": "_stakingToken",
          "type": "address"
        },
        {
          "internalType": "address",
          "name": "_rewardToken",
          "type": "address"
        },
        {
          "internalType": "address",
          "name": "_jobBoard",
          "type": "address"
        }
      ],
      "stateMutability": "nonpayable",
      "type": "constructor"
    },
    {
      "inputs": [
        {
          "internalType": "address",
          "name": "",
          "type": "address"
        }
      ],
      "name": "balanceOf",
      "outputs": [
        {
          "internalType": "uint256",
          "name": "",
          "type": "uint256"
        }
      ],
      "stateMutability": "view",
      "type": "function"
    },
    {
      "inputs": [],
      "name": "duration",
      "outputs": [
        {
          "internalType": "uint256",
          "name": "",
          "type": "uint256"
        }
      ],
      "stateMutability": "view",
      "type": "function"
    },
    {
      "inputs": [
        {
          "internalType": "address",
          "name": "_account",
          "type": "address"
        }
      ],
      "name": "earned",
      "outputs": [
        {
          "internalType": "uint256",
          "name": "",
          "type": "uint256"
        }
      ],
      "stateMutability": "view",
      "type": "function"
    },
    {
      "inputs": [],
      "name": "finishAt",
      "outputs": [
        {
          "internalType": "uint256",
          "name": "",
          "type": "uint256"
        }
      ],
      "stateMutability": "view",
      "type": "function"
    },
    {
      "inputs": [],
      "name": "getReward",
      "outputs": [],
      "stateMutability": "nonpayable",
      "type": "function"
    },
    {
      "inputs": [],
      "name": "jobBoard",
      "outputs": [
        {
          "internalType": "contract IJobBoard",
          "name": "",
          "type": "address"
        }
      ],
      "stateMutability": "view",
      "type": "function"
    },
    {
      "inputs": [],
      "name": "lastTimeRewardApplicable",
      "outputs": [
        {
          "internalType": "uint256",
          "name": "",
          "type": "uint256"
        }
      ],
      "stateMutability": "view",
      "type": "function"
    },
    {
      "inputs": [
        {
          "internalType": "uint256",
          "name": "_amount",
          "type": "uint256"
        }
      ],
      "name": "notifyRewardAmount",
      "outputs": [],
      "stateMutability": "nonpayable",
      "type": "function"
    },
    {
      "inputs": [],
      "name": "owner",
      "outputs": [
        {
          "internalType": "address",
          "name": "",
          "type": "address"
        }
      ],
      "stateMutability": "view",
      "type": "function"
    },
    {
      "inputs": [],
      "name": "rewardPerToken",
      "outputs": [
        {
          "internalType": "uint256",
          "name": "",
          "type": "uint256"
        }
      ],
      "stateMutability": "view",
      "type": "function"
    },
    {
      "inputs": [],
      "name": "rewardPerTokenStored",
      "outputs": [
        {
          "internalType": "uint256",
          "name": "",
          "type": "uint256"
        }
      ],
      "stateMutability": "view",
      "type": "function"
    },
    {
      "inputs": [],
      "name": "rewardRate",
      "outputs": [
        {
          "internalType": "uint256",
          "name": "",
          "type": "uint256"
        }
      ],
      "stateMutability": "view",
      "type": "function"
    },
    {
      "inputs": [
        {
          "internalType": "address",
          "name": "",
          "type": "address"
        }
      ],
      "name": "rewards",
      "outputs": [
        {
          "internalType": "uint256",
          "name": "",
          "type": "uint256"
        }
      ],
      "stateMutability": "view",
      "type": "function"
    },
    {
      "inputs": [],
      "name": "rewardsToken",
      "outputs": [
        {
          "internalType": "contract IERC20",
          "name": "",
          "type": "address"
        }
      ],
      "stateMutability": "view",
      "type": "function"
    },
    {
      "inputs": [
        {
          "internalType": "uint256",
          "name": "_duration",
          "type": "uint256"
        }
      ],
      "name": "setRewardsDuration",
      "outputs": [],
      "stateMutability": "nonpayable",
      "type": "function"
    },
    {
      "inputs": [
        {
          "internalType": "uint256",
          "name": "_amount",
          "type": "uint256"
        }
      ],
      "name": "stake",
      "outputs": [],
      "stateMutability": "nonpayable",
      "type": "function"
    },
    {
      "inputs": [],
      "name": "stakingToken",
      "outputs": [
        {
          "internalType": "contract IERC20",
          "name": "",
          "type": "address"
        }
      ],
      "stateMutability": "view",
      "type": "function"
    },
    {
      "inputs": [],
      "name": "totalSupply",
      "outputs": [
        {
          "internalType": "uint256",
          "name": "",
          "type": "uint256"
        }
      ],
      "stateMutability": "view",
      "type": "function"
    },
    {
      "inputs": [],
      "name": "updatedAt",
      "outputs": [
        {
          "internalType": "uint256",
          "name": "",
          "type": "uint256"
        }
      ],
      "stateMutability": "view",
      "type": "function"
    },
    {
      "inputs": [
        {
          "internalType": "address",
          "name": "",
          "type": "address"
        }
      ],
      "name": "userRewardPerTokenPaid",
      "outputs": [
        {
          "internalType": "uint256",
          "name": "",
          "type": "uint256"
        }
      ],
      "stateMutability": "view",
      "type": "function"
    },
    {
      "inputs": [
        {
          "internalType": "uint256",
          "name": "_amount",
          "type": "uint256"
        }
      ],
      "name": "withdraw",
      "outputs": [],
      "stateMutability": "nonpayable",
      "type": "function"
    }
  ],
  "transactionHash": "0x258293a255151b2ff0a6c82cd6435eb6b6d437ea45c6fdbc1aa6e37fcc51c108",
  "args": [
    "0x407585c982D93cce34b60FC93A13d8A758A588be",
    "0x364C1290Ebc39529348DB534D107b8d1Da713271",
    "0x84F96C678283F349EAACEc6b40c20Cc38C5b6733"
  ],
  "numDeployments": 7,
  "solcInputHash": "9423159e9fa4061ab7a734e5a3630bc9",
  "bytecode": "0x60e060405234801561001057600080fd5b50604051610e40380380610e4083398101604081905261002f9161007a565b600080546001600160a01b031916331790556001600160a01b0392831660805290821660a0521660c0526100bd565b80516001600160a01b038116811461007557600080fd5b919050565b60008060006060848603121561008f57600080fd5b6100988461005e565b92506100a66020850161005e565b91506100b46040850161005e565b90509250925092565b60805160a05160c051610d2a610116600039600081816102db0152818161032101526103b10152600081816102ab0152818161079501526109270152600081816101f1015281816105c00152610a270152610d2a6000f3fe608060405234801561001057600080fd5b50600436106101365760003560e01c80637519ab50116100b8578063a694fc3a1161007c578063a694fc3a14610278578063cc1a378f1461028b578063cd3daf9d1461029e578063d1af0c7d146102a6578063df136d65146102cd578063eab0ba68146102d657600080fd5b80637519ab501461022b5780637b0a47ee1461023457806380faa57d1461023d5780638b876347146102455780638da5cb5b1461026557600080fd5b80633c6b16ab116100ff5780633c6b16ab146101a85780633d18b912146101bb57806367d3b488146101c357806370a08231146101cc57806372f702f3146101ec57600080fd5b80628cc2621461013b5780630700037d146101615780630fb5a6b41461018157806318160ddd1461018a5780632e1a7d4d14610193575b600080fd5b61014e610149366004610bfb565b6102fd565b6040519081526020015b60405180910390f35b61014e61016f366004610bfb565b60076020526000908152604090205481565b61014e60015481565b61014e60085481565b6101a66101a1366004610c2b565b6104ca565b005b6101a66101b6366004610c2b565b61063b565b6101a661087e565b61014e60025481565b61014e6101da366004610bfb565b60096020526000908152604090205481565b6102137f000000000000000000000000000000000000000000000000000000000000000081565b6040516001600160a01b039091168152602001610158565b61014e60035481565b61014e60045481565b61014e61095a565b61014e610253366004610bfb565b60066020526000908152604090205481565b600054610213906001600160a01b031681565b6101a6610286366004610c2b565b61096d565b6101a6610299366004610c2b565b610ade565b61014e610b7f565b6102137f000000000000000000000000000000000000000000000000000000000000000081565b61014e60055481565b6102137f000000000000000000000000000000000000000000000000000000000000000081565b604051635a46204b60e01b81526001600160a01b03828116600483015260009182917f00000000000000000000000000000000000000000000000000000000000000001690635a46204b90602401602060405180830381865afa158015610368573d6000803e3d6000fd5b505050506040513d601f19601f8201168201806040525081019061038c9190610c44565b60405163074082c360e31b81526001600160a01b0385811660048301529192506000917f00000000000000000000000000000000000000000000000000000000000000001690633a04161890602401602060405180830381865afa1580156103f8573d6000803e3d6000fd5b505050506040513d601f19601f8201168201806040525081019061041c9190610c44565b90506001821561043e57610431836005610c73565b61043b9083610c8a565b90505b6001600160a01b038516600090815260076020908152604080832054600690925290912054670de0b6b3a76400009083610476610b7f565b6104809190610c73565b61048a9190610cac565b6001600160a01b0388166000908152600960205260409020546104ad9190610c73565b6104b79190610c8a565b6104c19190610cbf565b95945050505050565b336104d3610b7f565b6005556104de61095a565b6003556001600160a01b03811615610525576104f9816102fd565b6001600160a01b0382166000908152600760209081526040808320939093556005546006909152919020555b600082116105675760405162461bcd60e51b815260206004820152600a6024820152690616d6f756e74203d20360b41b60448201526064015b60405180910390fd5b3360009081526009602052604081208054849290610586908490610cac565b92505081905550816008600082825461059f9190610cac565b909155505060405163a9059cbb60e01b8152336004820152602481018390527f00000000000000000000000000000000000000000000000000000000000000006001600160a01b03169063a9059cbb906044015b6020604051808303816000875af1158015610612573d6000803e3d6000fd5b505050506040513d601f19601f820116820180604052508101906106369190610cd2565b505050565b6000546001600160a01b031633146106865760405162461bcd60e51b815260206004820152600e60248201526d1b9bdd08185d5d1a1bdc9a5e995960921b604482015260640161055e565b6000610690610b7f565b60055561069b61095a565b6003556001600160a01b038116156106e2576106b6816102fd565b6001600160a01b0382166000908152600760209081526040808320939093556005546006909152919020555b6002544210610700576001546106f89083610c8a565b60045561073c565b6000600454426002546107139190610cac565b61071d9190610c73565b60015490915061072d8285610cbf565b6107379190610c8a565b600455505b6000600454116107805760405162461bcd60e51b815260206004820152600f60248201526e07265776172642072617465203d203608c1b604482015260640161055e565b6040516370a0823160e01b81523060048201527f00000000000000000000000000000000000000000000000000000000000000006001600160a01b0316906370a0823190602401602060405180830381865afa1580156107e4573d6000803e3d6000fd5b505050506040513d601f19601f820116820180604052508101906108089190610c44565b6001546004546108189190610c73565b11156108665760405162461bcd60e51b815260206004820152601760248201527f72657761726420616d6f756e74203e2062616c616e6365000000000000000000604482015260640161055e565b6001546108739042610cbf565b600255505042600355565b33610887610b7f565b60055561089261095a565b6003556001600160a01b038116156108d9576108ad816102fd565b6001600160a01b0382166000908152600760209081526040808320939093556005546006909152919020555b3360009081526007602052604090205480156109565733600081815260076020526040808220919091555163a9059cbb60e01b81526004810191909152602481018290526001600160a01b037f0000000000000000000000000000000000000000000000000000000000000000169063a9059cbb906044016105f3565b5050565b600061096860025442610be0565b905090565b33610976610b7f565b60055561098161095a565b6003556001600160a01b038116156109c85761099c816102fd565b6001600160a01b0382166000908152600760209081526040808320939093556005546006909152919020555b60008211610a055760405162461bcd60e51b815260206004820152600a6024820152690616d6f756e74203d20360b41b604482015260640161055e565b6040516323b872dd60e01b8152336004820152306024820152604481018390527f00000000000000000000000000000000000000000000000000000000000000006001600160a01b0316906323b872dd906064016020604051808303816000875af1158015610a78573d6000803e3d6000fd5b505050506040513d601f19601f82011682018060405250810190610a9c9190610cd2565b503360009081526009602052604081208054849290610abc908490610cbf565b925050819055508160086000828254610ad59190610cbf565b90915550505050565b6000546001600160a01b03163314610b295760405162461bcd60e51b815260206004820152600e60248201526d1b9bdd08185d5d1a1bdc9a5e995960921b604482015260640161055e565b4260025410610b7a5760405162461bcd60e51b815260206004820152601c60248201527f726577617264206475726174696f6e206e6f742066696e697368656400000000604482015260640161055e565b600155565b6000600854600003610b92575060055490565b600854600354610ba061095a565b610baa9190610cac565b600454610bb79190610c73565b610bc990670de0b6b3a7640000610c73565b610bd39190610c8a565b6005546109689190610cbf565b600081831115610bf05781610bf2565b825b90505b92915050565b600060208284031215610c0d57600080fd5b81356001600160a01b0381168114610c2457600080fd5b9392505050565b600060208284031215610c3d57600080fd5b5035919050565b600060208284031215610c5657600080fd5b5051919050565b634e487b7160e01b600052601160045260246000fd5b8082028115828204841417610bf557610bf5610c5d565b600082610ca757634e487b7160e01b600052601260045260246000fd5b500490565b81810381811115610bf557610bf5610c5d565b80820180821115610bf557610bf5610c5d565b600060208284031215610ce457600080fd5b81518015158114610c2457600080fdfea264697066735822122040e04a2453ad7036c9dfcb2c8d9d1eb646b293fc59b2af09a677b0cd0c64ef2964736f6c63430008180033",
  "devdoc": {
    "kind": "dev",
    "methods": {},
    "version": 1
  },
  "userdoc": {
    "kind": "user",
    "methods": {},
    "version": 1
  },
  "storageLayout": {
    "storage": [
      {
        "astId": 14,
        "contract": "contracts/Staking.sol:StakingRewards",
        "label": "owner",
        "offset": 0,
        "slot": "0",
        "type": "t_address"
      },
      {
        "astId": 16,
        "contract": "contracts/Staking.sol:StakingRewards",
        "label": "duration",
        "offset": 0,
        "slot": "1",
        "type": "t_uint256"
      },
      {
        "astId": 18,
        "contract": "contracts/Staking.sol:StakingRewards",
        "label": "finishAt",
        "offset": 0,
        "slot": "2",
        "type": "t_uint256"
      },
      {
        "astId": 20,
        "contract": "contracts/Staking.sol:StakingRewards",
        "label": "updatedAt",
        "offset": 0,
        "slot": "3",
        "type": "t_uint256"
      },
      {
        "astId": 22,
        "contract": "contracts/Staking.sol:StakingRewards",
        "label": "rewardRate",
        "offset": 0,
        "slot": "4",
        "type": "t_uint256"
      },
      {
        "astId": 24,
        "contract": "contracts/Staking.sol:StakingRewards",
        "label": "rewardPerTokenStored",
        "offset": 0,
        "slot": "5",
        "type": "t_uint256"
      },
      {
        "astId": 28,
        "contract": "contracts/Staking.sol:StakingRewards",
        "label": "userRewardPerTokenPaid",
        "offset": 0,
        "slot": "6",
        "type": "t_mapping(t_address,t_uint256)"
      },
      {
        "astId": 32,
        "contract": "contracts/Staking.sol:StakingRewards",
        "label": "rewards",
        "offset": 0,
        "slot": "7",
        "type": "t_mapping(t_address,t_uint256)"
      },
      {
        "astId": 34,
        "contract": "contracts/Staking.sol:StakingRewards",
        "label": "totalSupply",
        "offset": 0,
        "slot": "8",
        "type": "t_uint256"
      },
      {
        "astId": 38,
        "contract": "contracts/Staking.sol:StakingRewards",
        "label": "balanceOf",
        "offset": 0,
        "slot": "9",
        "type": "t_mapping(t_address,t_uint256)"
      }
    ],
    "types": {
      "t_address": {
        "encoding": "inplace",
        "label": "address",
        "numberOfBytes": "20"
      },
      "t_mapping(t_address,t_uint256)": {
        "encoding": "mapping",
        "key": "t_address",
        "label": "mapping(address => uint256)",
        "numberOfBytes": "32",
        "value": "t_uint256"
      },
      "t_uint256": {
        "encoding": "inplace",
        "label": "uint256",
        "numberOfBytes": "32"
      }
    }
  }
}